:100000000C9434000C9451000C9451000C94510049
:100010000C9451000C9451000C9451000C9451001C
:100020000C9451000C9451000C9451000C9451000C
:100030000C9451000C9451000C9451000C945100FC
:100040000C945A000C9451000C9451000C945100E3
:100050000C9451000C9451000C9451000C945100DC
:100060000C9451000C94510011241FBECFEFD8E026
:10007000DEBFCDBF11E0A0E0B1E0E8E4F2E002C0F5
:1000800005900D92A231B107D9F721E0A2E1B1E0CC
:1000900001C01D92AB31B207E1F70E94A4000C949D
:1000A00022010C9400009091C00095FFFCCF80933A
:1000B000C60008951F920F920FB60F9211242F932E
:1000C0003F938F939F93AF93BF938091170190912C
:1000D0001801A0911901B0911A013091160123E085
:1000E000230F2D3758F50196A11DB11D2093160140
:1000F0008093170190931801A0931901B0931A01EE
:100100008091120190911301A0911401B0911501F9
:100110000196A11DB11D8093120190931301A0932C
:100120001401B0931501BF91AF919F918F913F91B1
:100130002F910F900FBE0F901F90189526E8230F58
:100140000296A11DB11DD2CF789484B5826084BD82
:1001500084B5816084BD85B5826085BD85B58160CB
:1001600085BD80916E00816080936E001092810049
:100170008091810082608093810080918100816004
:1001800080938100809180008160809380008091C5
:10019000B10084608093B1008091B0008160809351
:1001A000B00080917A00846080937A0080917A0018
:1001B000826080937A0080917A00816080937A00D7
:1001C00080917A00806880937A001092C10010922A
:1001D000C50087E68093C4008091C1008861809348
:1001E000C1008091C20086608093C200259AD0E24F
:1001F00080E0E82E80E0F82E8091C00087FF1CC0D0
:100200008091C00087FFFCCFC091C60000E011E0E4
:10021000F80181918F01882319F00E945300F8CFD3
:100220008C2F0E9453008DE00E945300CF7DC1347B
:1002300019F485B18D2785B9E114F104E9F20E9422
:080240000000DACFF894FFCFB3
:10024800596F7520686176652073656E74203D204E
:020258000000A4
:00000001FF
